:100000000C9463080C94AA080C94AA080C94A130D0
:100010000C94AA080C94AA080C94AA080C94AA0898
:100020000C94AA080C94AA080C94DA2D0C94B42E03
:100030000C9478170C94AA080C94AA080C94AA089B
:100040000C94AA080C94AA080C94AA080C94AA0868
:100050000C94AA080C94F3270C94AA080C94AA08F0
:100060000C94AA080C94AA080C94AA080C94AA0848
:100070000C94AA080C94AA080C94AA080C94AA0838
:100080000C94AA080C94AA080C94AA080C94AA0828
:100090000C94AA080C94AA080C94AA080C94AA0818
:1000A0000C94AA080C94AA080C94AA0800AF0000AB
:1000B000000000003E5B4F5B3E003E6B4F6B3E001E
:1000C0001C3E7C3E1C00183C7E3C18001C577D5793
:1000D0001C001C5E7F5E1C0000183C180000FFE73F
:1000E000C3E7FF00001824180000FFE7DBE7FF006C
:1000F00030483A060E00262979292600407F05055A
:100100000700407F05253F005A3CE73C5A007F3EF0
:100110001C1C0800081C1C3E7F0014227F221400B7
:100120005F5F005F5F0006097F017F0000668995C1
:100130006A0060606060600094A2FFA294000804FE
:100140007E04080010207E20100008082A1C0800E9
:10015000081C2A0808001E10101010000C1E0C1E8F
:100160000C0030383E383000060E3E0E060000000F
:100170000000000000005F00000000070007000012
:10018000147F147F1400242A7F2A1200231308648A
:100190006200364956205000000807030000001C8A
:1001A000224100000041221C00002A1C7F1C2A0062
:1001B00008083E08080000807030000008080808A1
:1001C00008000000606000002010080402003E519A
:1001D00049453E0000427F400000724949494600BF
:1001E0002141494D33001814127F10002745454521
:1001F00039003C4A4949310041211109070036497B
:1002000049493600464949291E00000014000000F3
:10021000004034000000000814224100141414149B
:1002200014000041221408000201590906003E4151
:100230005D594E007C1211127C007F4949493600FD
:100240003E41414122007F4141413E007F494949B1
:1002500041007F09090901003E41415173007F08B7
:1002600008087F0000417F4100002040413F01001D
:100270007F08142241007F40404040007F021C0262
:100280007F007F0408107F003E4141413E007F090E
:10029000090906003E4151215E007F0919294600E7
:1002A00026494949320003017F0103003F40404095
:1002B0003F001F2040201F003F4038403F00631494
:1002C000081463000304780403006159494D430096
:1002D000007F4141410002040810200000414141DB
:1002E0007F0004020102040040404040400000033F
:1002F000070800002054547840007F284444380008
:10030000384444442800384444287F003854545426
:10031000180000087E09020018A4A49C78007F0839
:100320000404780000447D4000002040403D00006F
:100330007F102844000000417F4000007C047804C6
:1003400078007C0804047800384444443800FC18E1
:100350002424180018242418FC007C080404080035
:1003600048545454240004043F4424003C4040209A
:100370007C001C2040201C003C4030403C004428B5
:10038000102844004C9090907C004464544C4400ED
:1003900000083641000000007700000000413608E8
:1003A00000000201020402003C2623263C0000005B
:1003B00000000000404040F0F8F8FF38FFF8F83F38
:1003C000F8F8FF38FFF8F8F0404040000000000067
:1003D0000080C0C0C0800000C0C08000000080C09D
:1003E000C000C0C0000080C0C00000000000C0C04D
:1003F000C0C0C000C0C0000000000000000000003D
:1004000000000000000000000000000000000000EC
:1004100000000000000000000000000000000000DC
:1004200000000000000000000000000000C0F0F824
:10043000FC3E1E06010000007F4141417F007F41DC
:1004400041417F000080C0E07E5B4F5BFEC000004A
:10045000C000DCD7DEDEDED7DC00C000000000001C
:10046000000000000000000000000000000000008C
:1004700000000000494949FFFFFFFFE0DFBFBF0068
:10048000BFBFDFE0FFFFFFFF494949000000000058
:100490001F3F6060E0BF1F007F7F071E381E077F81
:1004A0007F007F7F0E1F3B716000000000007F7F98
:1004B0000C0C0C007E7E007F7E0303007F7E030316
:1004C0007E7E03037F7E000F3E703C063C703E0F35
:1004D00000327B49493F7E007F7E0303001E3F6957
:1004E000696F2600000000000000000000030F1FDD
:1004F0003F3C7870600000007F4141417F007F41B8
:1005000041417F00307B7F7830202030787F3B0076
:1005100003000F7F0F0F0F7F0F000300000000008C
:1005200000000000000000000000000000000000CB
:1005300000000000010101070F0F7F0F7F0F0F7EEA
:100540000F0F7F0F7F0F0F07010101000000000058
:100550000000000000010100000000000000000099
:10056000000000000000000000000000000000008B
:10057000000000000000000000000000000000007B
:10058000000000000000000000000000000000006B
:10059000000000000000000000000000000000005B
:1005A000000000000000000000000000000000004B
:1005B000000000000000000000000000000000003B
:1005C000000000000000000000000000000000002B
:1005D000000000000000000000000000000000001B
:1005E0000000000000000000000000000000050105
:1005F0000902A10185020901A100050919012905C6
:10060000150025019505750181029501750381018C
:100610000501093009311581257F9502750881068C
:1006200009381581257F950175088106050C0A3862
:10063000021581257F950175088106C0C005010955
:1006400080A101850319012AB700150126B700957D
:100650000175108100C0050C0901A1018504190173
:100660002AA002150126A002950175108100C0057F
:10067000010906A101050719E029E71500250195E3
:100680000875018102950175088101050719002986
:10069000FF150026FF009506750881000508190161
:1006A0002905950575019102950175039101C00910
:1006B000023B00020100A0FA09040000010301014D
:1006C00000092111010001224000070581030800F3
:1006D0000A090401000103000000092111010001C1
:1006E0002281000705820320000A12011001000088
:1006F0000008EDFE00000100010200011E034B0096
:10070000790072006900610020004B0065007900EB
:1007100062006F006100720064000000100373004B
:1007200070006C00690074006B006200000004033C
:10073000090400DA1281FFD9F1DB20A4A62EAF0054
:10074000A0C000A1C800AED580A83FD300408D1442
:10075000200032190A00047F3F1F643214643214EF
:10076000783C1E1E140A05808182838485868788D2
:10077000898A8B8C8D8E8F9091929394A0A1A2A345
:10078000A4A5A6A7A8A9AAABACADAEAFB0B1B2B3B1
:10079000B4C0C1C2C3C4C5C6C7C8C9CACBCCCDCEFC
:1007A000CFD0D1D2D3D4002020202020202000532D
:1007B00043524C434B200020202020202020004387
:1007C00041504C434B200020202020202020004E70
:1007D000554D4C434B2000556E646566696E6564EB
:1007E0000A0041646A7573740A0052616973650A8C
:1007F000004C6F7765720A0044656661756C740A17
:10080000004C617965723A200020202020202020B1
:100810004B7972696120726576312E300A0A0000C8
:100820000000000000000000000000008080C0E028
:10083000F07078383C1C1E0E0E0E070707070707DE
:10084000070707070707070707070E0E0E1E1C3CC2
:10085000387870F0E0C080800000000000000000E8
:100860000000000000000000000000000000000088
:100870000000000000000000000000000000000078
:100880000000000000000000000000000000000068
:100890000000000000000000000000000000000058
:1008A000000000000000C0E0F07C3E1F0F070301C5
:1008B00080C0E0F078383C1C1E0E0E070787E77FEB
:1008C0001FFFFF1F7FE78707070E0E1E1C3C3878AF
:1008D000F0E0C0800103070F1F3E7CF0E0C0000085
:1008E0000000000000000000000000000000000008
:1008F00000000000000000000000000000000000F8
:1009000000000000000000000000000000000000E7
:1009100000000000000000000000000000000000D7
:10092000000000F0FCFF1F07010000C0F0FCFEFF0C
:10093000F7F3B1B03030303030303078FE8701001E
:1009400000FFFF00000187FE78303030303030305B
:10095000B0B1F3F7FFFEFCF0C0000001071FFFFC81
:10096000F000000000000000000000000000000097
:100970000000000000000000000000000000000077
:100980000000000000000000000000000000000067
:100990000000000000000000000000000000000057
:1009A0000000FFFFFF0000000000FEFFFF01010745
:1009B0001E78E181838386868C8C9898B1B7FEF887
:1009C000E0FFFFE0F8FEB7B198988C8C86868383B1
:1009D00081E1781E070101FFFFFE0000000000FF1B
:1009E000FFFF00000000FFFF0000C0C0303000002B
:1009F000F0F0000000000000F0F00000F0F0C0C0D7
:100A000030303030C0C000003030F3F30000000060
:100A10000000303030303030C0C000000000000036
:100A20000000FFFFFF00000000007FFFFF8080E06C
:100A3000781E8781C1C16161313119198DED7F1F28
:100A400007FFFF071F7FED8D191931316161C1C1AA
:100A500081871E78E08080FFFF7F0000000000FF9C
:100A6000FFFF000000003F3F03030C0C303000008C
:100A700000003333333333330F0F00003F3F0000A8
:100A8000000000000000000030303F3F3030000028
:100A90000C0C3333333333333F3F0000000000008E
:100AA0000000000F3FFFF8E0800000030F3F7FFFD2
:100AB000EFCF8D0D0C0C0C0C0C0C0C1E7FE180008C
:100AC00000FFFF000080E17F1E0C0C0C0C0C0C0CD6
:100AD0000D8DCFEFFF7F3F0F03000080E0F8FF3F59
:100AE0000F000000000000000000000000000000F7
:100AF00000000000000000000000000000000000F6
:100B000000000000000000000000000000000000E5
:100B100000000000000000000000000000000000D5
:100B200000000000000003070F3E7CF8F0E0C080EA
:100B30000103070F1E1C3C38787070E0E0E1E7FE0F
:100B4000F8FFFFF8FEE7E1E0E0707078383C1C1E2B
:100B50000F07030180C0E0F0F87C3E0F07030000A0
:100B60000000000000000000000000000000000085
:100B70000000000000000000000000000000000075
:100B80000000000000000000000000000000000065
:100B90000000000000000000000000000000000055
:100BA0000000000000000000000000000101030739
:100BB0000F0E1E1C3C3878707070E0E0E0E0E0E062
:100BC000E0E0E0E0E0E0E0E0E0E070707078383C29
:100BD0001C1E0E0F070301010000000000000000B2
:100BE0000000000000000000000000000000000005
:100BF00000000000000000000000000000000000F5
:100C000000000000000000000000000000000000E4
:100C100000000000000000000000000000000000D4
:100C2000AE00000000000000000000000000000016
:100C300000000000007E0F00D4FFFFFFC70000008F
:100C40007800000000000000002A2B2800000000AF
:100C5000000000000000000000000000290000006B
:100C6000002C1E3420212224342627252E362D3711
:100C700038271E1F202122232425263333362E37E2
:100C8000381F0405060708090A0B0C0D0E0F10117A
:100C900012131415161718191A1B1C1D2F31302387
:100CA0002D350405060708090A0B0C0D0E0F10114F
:100CB00012131415161718191A1B1C1D2F31303555
:100CC0004C2223252628292A2C2D2F303233353645
:100CD000383A3B3D3E4042434547494A4C4E5051CD
:100CE000535557595A5C5E6062646668696B6D6FF4
:100CF00071737577797B7D7F81838587898A8C8EF7
:100D000090929496989A9C9E9FA1A3A5A7A8AAACFE
:100D1000AEAFB1B3B4B6B8B9BBBCBEBFC1C2C3C538
:100D2000C6C7C9CACBCCCDCED0D1D2D2D3D4D5D6DA
:100D3000D7D7D8D9D9DADADBDBDBDCDCDCDCDCDD0D
:100D4000DDDDDDDCDCDCDCDCDBDBDBDADAD9D9D8F1
:100D5000D7D7D6D5D4D3D2D2D1D0CECDCCCBCAC989
:100D6000C7C6C5C3C2C1BFBEBCBBB9B8B6B4B3B1B8
:100D7000AFAEACAAA8A7A5A3A19F9E9C9A98969453
:100D800092908E8C8A89878583817F7D7B79777528
:100D900073716F6D6B6968666462605E5C5A595707
:100DA000555351504E4C4A4947454342403E3D3BC6
:100DB0003A3836353332302F2D2C2A292826252350
:100DC00022FFAA7F5540000101010101010101013B
:100DD00002020202020202020203030303030303EC
:100DE00003040404040404040505050505060606B9
:100DF0000606070707070708080808090909090A76
:100E00000A0A0B0B0B0C0C0C0D0D0D0E0E0E0F0F1A
:100E10000F101011111112121313141415151616A8
:100E20001717181819191A1A1B1B1C1D1D1E1E1F17
:100E30002020212222232424252626272829292A66
:100E40002B2C2D2D2E2F303132323334353637388E
:100E5000393A3B3C3D3E3F4041424344454647488A
:100E6000494A4C4D4E4F50515354555658595A5B60
:100E70005D5E5F616264656668696B6C6D6F707200
:100E8000737577787A7B7D7E8082838587888A8C6C
:100E90008E8F91939596989A9C9EA0A2A3A5A7A9A0
:100EA000ABADAFB1B3B5B7BABCBEC0C2C4C6C9CB97
:100EB000CDCFD1D4D6D8DBDDDFE2E4E7E9EBEEF04D
:100EC000F3F5F8FAFDFF0000000017001500080018
:100ED0001A0014002900000000000A0009000700A1
:100EE00016000400E100195C30000500190006003E
:100EF0001B001D00E0002C0001512B00E300E2006C
:100F0000000000000000000000001C0018000C00A1
:100F1000120013002F00000000000B000D000E0057
:100F20000F0033003400185C31001100100036004F
:100F300037003800E500280002512A004C00000567
:100F4000000000000000000000002200210020003E
:100F50001F001E000100000000003F003E003D0099
:100F60003C003B003A001A5C010001000100010056
:100F70000100010001000100010001000100010069
:100F800000000000000000000000230024002500F5
:100F9000260027002D000000000040004100420014
:100FA0004300440045001B5C0100010001000100FA
:100FB0000100010001000100010001000100010029
:100FC000000000000000000000000100F500F0003B
:100FD000F40001000100000000000100F300F10036
:100FE000F200010001001A5C010001000100010093
:100FF00001000100010001000100010001000100E9
:1010000000000000000000000000AB004B00520098
:101010004E004600A90000000000AE005000510044
:101020004F000000A80001000100AC00000000001B
:1010300000000000AA000100010001000100010001
:1010400000000000000000000000D45CD25CD15C15
:10105000D05CCF5CA50000000000C55CCB5CC75C29
:10106000C95CC45CA60001000100C65CCC5CC85C25
:10107000CA5C0100A70001000100D75CD65CD55C0A
:10108000000000000000000000005F006000610040
:10109000010001000100000000005C005D005E0036
:1010A0000100010001000100010059005A005B002D
:1010B00001000100010001000100620001000100C7
:1010C00000000000000011241FBECFEFDAE0DEBFF9
:1010D000CDBF04B603FE27C08091B2079091B3073D
:1010E000A091B407B091B5078730904BA740B04BA3
:1010F000D1F41092B2071092B3071092B407109275
:10110000B50714BE84B7877F84BF0FB6F894A8953F
:1011100080916000886180936000109260000FBE33
:10112000E0E0F8E3099527E0ACEBB1E001C01D92E7
:10113000A23BB207E1F711E0A0E0B1E0E4EEFCE68B
:1011400002C005900D92AC3BB107D9F70E94172859
:101150000C942A360C9400009091AD0792FF06C0C3
:10116000282F28712830F9F4877F846093FF06C008
:10117000282F28712831F1F4877E84612091AE07F1
:1011800020FF06C0382F38713830D9F4877F81604E
:1011900021FF06C0282F28712831D1F4877E816174
:1011A00094FD877E0895282F24712430F9F68B7FD3
:1011B0008860DCCF282F2471243101F78B7E886171
:1011C000DDCF382F3171313019F78E7F8860E0CF55
:1011D000282F2171213121F78E7E8861E1CFCF93B5
:1011E000DF9328E0829FC0011124870F911DA3E0A7
:1011F000880F991FAA95E1F7FC01E60FF11DEE0F8C
:10120000FF1FEA53F14FC591D491CE01C03ED105E5
:1012100009F46DC060F5C133D10509F4B2C088F49A
:10122000C932D10509F4A6C0CA32D10509F4B0C04B
:10123000C130D10549F12497C13AD10508F063C006
:1012400023C0C933D10509F44BC0C238D10509F414
:1012500047C0C533D10509F486C0C83AD10508F0A6
:101260009EC0C53AD10520F3849790640DC0C43E5A
:10127000D10509F45BC058F4C23ED10509F446C05B
:10128000C33ED10509F447C0DF91CF910895C63E12
:10129000D10509F456C0C73ED10509F459C0C1159E
:1012A00032E5D30708F0AEC0C11541E5D40708F018
:1012B000F8C0C83ED10540F3C11520E5D20708F0BB
:1012C00086C0C11530E4D30708F0E8C0CF3FD10590
:1012D00011F008F076C09065C03FD105A8F613C0A4
:1012E0002091AD07237081F280EE90E0CDCF209168
:1012F000AD0720FDF8C03091AE0730FFC5CF83EEBB
:1013000090E024FFC1CF90E080E0BECF2091AD07F8
:1013100022FDF5CFB9CF2091AD0722FDE7C0309176
:10132000AE0730FDE1CF24FFAFCFEDCF2091AE0768
:1013300021FFAACF8091AD0784FDE5CF87EE90E035
:10134000A3CF2091AD0723FF9FCF24FDDCCFF6CFA5
:101350002091AD0723FDCDC03091AE0731FFE3CF23
:1013600084EE90E091CF2091AD0725FF8DCF89E2EB
:1013700090E08ACF2091AD0725FF86CF85E390E0EE
:1013800083CF2091AD0726FF7FCF8AE290E07CCF0C
:101390002091AD0726FF78CF81E390E075CF9E01C5
:1013A000285A31092731310508F0ADCF885AE82F86
:1013B000F0E0EE0FFF1FE357FE4F808191819464B0
:1013C00063CFDA95C115DF4108F45ECF9CCF9E0153
:1013D000F4E036952795FA95E1F723708695869582
:1013E000837030E2839FC0011124922BC37021E0EF
:1013F00030E002C0220F331FCA95E2F7822B932BF5
:101400009C6842CFC11546E5D40718F5C11525E5FE
:10141000D20708F052C0C11534E5D307A8F49C2FB9
:1014200096959695AE014370552721E030E002C0B5
:10143000220F331F4A95E2F740E2C115D345B0F5BC
:10144000949FC0011124DACF9C2F8827846F906A63
:101450001BCFC1158AE5D80780F4C11529E5D2074D
:10146000A8F5CE0198558F3F910511F008F04BCFAC
:101470009C2F8827806F906A07CFCE0190568115E8
:10148000904208F040CF8D2F8F710E94AC0890E001
:10149000982F882788279F718C2B16C09F70906A81
:1014A000F3CE9C2F8827816F906AEECE949FC00167
:1014B0001124822B932B9A68E7CE0E94AC0890E00F
:1014C000982F882788279F719062DECE8C2F8F708F
:1014D0000E94AC0834E0D695C7953A95E1F7CF70F5
:1014E0009C2F9069D1CE89E390E0CECE82EE90E041
:1014F000CBCE86EE90E0C8CEF894E82FE295EF7060
:10150000A1E2AE0FB0E04C918F7021E030E0B90164
:1015100002C0660F771F8A95E2F7CB01962F909550
:1015200094239C93EE5DF0E09081892B80837894E6
:101530000895AF92BF92CF92DF92EF92FF920F93F6
:101540001F93CF93DF93082F162FE901473908F037
:1015500046E9E42FF0E0EA53F24F111111C0E49193
:101560005E2F4E2F4983E8835A83DF91CF911F91DD
:101570000F91FF90EF90DF90CF90BF90AF900895C4
:10158000212F30E0449186E0089F60011124EE2471
:10159000EA94F12CC601B7010E94C931802F90E076
:1015A000880F991F55E5569FF001579FF00D1124A4
:1015B0008E1B9F0B982F990F890FF701E21BF30BDE
:1015C0004E9FD0014F9FB00D1124EB2F189F80012B
:1015D0001124012F11275701A01AB10A4A9D800139
:1015E0004B9D100D1124512F5701A81AB108A29E2E
:1015F000C001A39E900DB29E900D1124892F9927B2
:10160000E81AF90A4E9DC0014F9D900D11246330D8
:101610007105D1F02CEFC21623E0D20670F46130D0
:101620007105B1F062307105B9F02FEFC216D10427
:1016300008F098CF5B2FE92F95CF6430710579F0D2
:1016400066307105B9F38ECFE12F542F4B2F8ACF1F
:10165000E42F412F5B2F86CF592FE42FF7CF542F44
:10166000492F80CF80918807982F9E7F61F48170E9
:1016700082608093880780918B07873918F086E90C
:1016800080938B0708958635B0F381708465F1CF20
:10169000EFE7F7E0118282818460828308950895E4
:1016A000FA0181110994FB01FDCFE091D206F0917E
:1016B000D306309721F00190F081E02D099480E06D
:1016C00008952091D0063091D1062817390771F07E
:1016D0009093D1068093D006E091D206F091D30684
:1016E000309721F00680F781E02D0994089520912C
:1016F000CE063091CF062817390771F09093CF06A8
:101700008093CE06E091D206F091D306309721F077
:101710000084F185E02D09940895809197069091B9
:101720009606981301C008958F5F8770FACF990FBE
:10173000990F990FE92FE80F877041E001C0440F1E
:101740008A95EAF7E695E695E69585E0E89FF0014B
:101750001124E85BF94F30E020E070E05191DF01A7
:101760001197CB01022E02C0969587950A94E2F755
:10177000817081958527842385278C932F5F3F4F28
:101780002530310559F70895E92FEE0FEE0FEE0FD2
:10179000E80F982F9770E695E695E69585E0E89F27
:1017A000F0011124E85BF94F50E040E080E0219126
:1017B00030E0092E02C0369527950A94E2F7217091
:1017C0003327042E01C0220F0A94EAF7822B4F5FC1
:1017D0005F4F4530510559F70895BF92CF92DF9280
:1017E000EF92FF920F931F93CF93DF938C01C090E2
:1017F0009106D0909206E0909306F0909406809126
:101800008D0690918E06A0918F06B0919006C82A01
:10181000D92AEA2AFB2ACFE1D0E0BC2ED701C601A3
:101820000C2E04C0B695A795979587950A94D2F784
:1018300080FD0EC0219788F7B12C8B2DDF91CF91C1
:101840001F910F91FF90EF90DF90CF90BF90089580
:10185000B8018C2F0E94EF08019761F3EECFFF9241
:101860000F931F93CF93DF93FC018281008111813D
:10187000D081F180882319F1662309F1C8010E9403
:10188000ED0BC82F682FC8010E94970B88E0C89FF6
:10189000F0011124EF0DF11D83E0EE0FFF1F8A957B
:1018A000E1F7ED0FF11DEE0FFF1FEA53F14F8591A8
:1018B0009491DF91CF911F910F91FF900895C801EE
:1018C0000E94C40BC82FE2CFCF93DF93D82FC92F2C
:1018D0000E94ED0B6D2F7C2FDF91CF910C94EF08C0
:1018E0000E94640C282F892F8F70392F32953F70FA
:1018F000903C80F43A30B0F4343020F4323090F43C
:1019000080E008953630E1F781E0283E88F0213FFD
:10191000B9F70EC03C3011F03F3091F786958695AF
:101920008695089581E0203F39F018F4283E40F76D
:101930000895243F29F7FCCF0895AFEBB1E0EFEF16
:1019400090E02D91821751F0EF3F19F4211101C061
:10195000E92F9F5F9630A9F7EF3F09F408950E2E07
:10196000000CFF0BE354FE4F82830895EFEBF1E090
:101970009191891303C0DF0111971C9291E0E53C1E
:10198000F907B1F7089580918C06811110928C06A9
:10199000089580918A0690918B06892B909170060C
:1019A000892B8093BD0190918C06992391F0892B0E
:1019B0008093BD0120E08FEB91E0FC013081019626
:1019C00031112F5F31E0853C9307B9F721110E9457
:1019D000C30CE091D206F091D306309731F002802B
:1019E000F381E02D8DEB91E009940895882339F07F
:1019F00090918A06892B80938A060C94C90C0895CD
:101A0000882341F0809590918A06892380938A06E5
:101A10000C94C90C0895CF93DF9300D000D0CDB7BC
:101A2000DEB78FB7F8942091430630914406409179
:101A300045065091460629833A834B835C838FBFCA
:101A400069817A818B819C810F900F900F900F900C
:101A5000DF91CF9108959C014FB7F8948091430690
:101A600090914406A0914506B09146064FBF821B57
:101A7000930B08958091710680FD14C081FD14C000
:101A800082FD16C080917306882381F0843180F432
:101A900022E3829FC001112464E170E00E94DD31E5
:101AA000862F08958CE0089589E1089585E00895D2
:101AB00082E308958091710680FD16C081FD16C0F5
:101AC00082FD16C0809172068823A1F0883280F4CE
:101AD00028E0829FC001112468E270E00E94DD319D
:101AE000862F672B39F0089582E0089584E00895E9
:101AF00088E0089581E00895803F31F40E943A0D16
:101B00008195809377060895813F19F40E943A0DDC
:101B1000F8CF823F31F40E943A0D8195809376068A
:101B20000895833F19F40E943A0DF8CF893F29F4B4
:101B30000E945A0D8093780608958A3F21F40E94EE
:101B40005A0D8195F7CF8B3F31F40E945A0D819544
:101B50008093790608958C3F19F40E945A0DF8CFAE
:101B6000843F31F4809175068160809375060895F5
:101B7000853F21F4809175068260F7CF863F21F47E
:101B8000809175068460F1CF873F21F480917506BE
:101B90008860EBCF883F21F4809175068061E5CFA6
:101BA0008D3F31F4809171068160809371060895B4
:101BB0008E3F21F4809171068260F7CF8F3FB9F795
:101BC000809171068460F1CF90917606803F59F440
:101BD0008091770687FF0DC01092770691110BC098
:101BE0001092730608C0813F81F480917706181621
:101BF0009CF3992381F08091780690917906892B46
:101C000009F064C0109272060895823F49F497FF6C
:101C1000F0CF10927606809177068111ECCFE0CF5D
:101C2000833F19F41916ACF3E4CF20917806893F6D
:101C300029F41216F4F610927806DBCF8A3F19F4D5
:101C400027FFD7CFF8CF209179068B3F29F427FFC4
:101C5000D0CF10927906CDCF8C3F19F41216CCF369
:101C6000C8CF843F31F4809175068E7F80937506CE
:101C7000C0CF853F21F4809175068D7FF7CF863FD9
:101C800021F4809175068B7FF1CF873F21F48091FD
:101C90007506877FEBCF883F21F4809175068F7E94
:101CA000E5CF8D3F31F4809171068E7F8093710670
:101CB000A0CF8E3F21F4809171068D7FF7CF8F3FAB
:101CC00009F097CF809171068B7FF0CF08958091B6
:101CD0003E060895FC01CB012091D7013091D80137
:101CE0002617370790F0009729F42091E8002E7707
:101CF0002093E80040E0009751F4411108C0809122
:101D0000E80082FF31C080E00895C901F3CF20913F
:101D100035062223A9F12530A9F12091E80023FD01
:101D20002DC02091E80022FDEACF2091E80020FF9D
:101D3000E2CF3091F3002091F200009719F02830A3
:101D4000310558F041E02830310509F040E020919C
:101D5000E8002E772093E800CECF41914093F10028
:101D600001972F5F3F4FE9CF80913506882341F0DF
:101D7000853041F08091E80083FFC1CF81E0089574
:101D800082E0089583E008958091D10187FF13C018
:101D90008091E80082FF06C08091E8008B778093F5
:101DA000E80004C0809135068111F2CF089580913A
:101DB00035068823D9F38091E80080FFF8CF809121
:101DC000E8008E77ECCF2091E4003091E50095E6B5
:101DD000A9012091EC00822F817020FF06C0809124
:101DE000E80080FF06C080E008952091E80022FD11
:101DF0001AC080913506882389F0853089F080915A
:101E0000EB0085FD0FC02091E4003091E500421702
:101E10005307F9F29150E1F684E0089582E00895C5
:101E200083E0089581E00895E8EDF0E080818E7F01
:101E300080831092E2001092DA001092E100A0EE8E
:101E4000B0E08C9181608C9380818F77808319BC06
:101E5000A7EDB0E08C918E7F8C9380818F7E808304
:101E60001092D0010895EF92FF920F931F93CF939A
:101E70007C018B010E94E30EC82F811117C0809155
:101E8000E80085FD0BC08091E8008E778093E80024
:101E90000E94E30E882399F3C82F08C0F7018191AF
:101EA0007F018093F1000150110949F78C2FCF91E8
:101EB0001F910F91FF90EF900895982F9093E90054
:101EC000242F762F50E0891731F07091EC0020918B
:101ED000ED005091F00021FD06C09F5F973071F733
:101EE0008093E90008953091EB003E7F3093EB0042
:101EF0003091ED003D7F3093ED003091EB0031608B
:101F00003093EB007093EC002093ED005093F000C1
:101F10002091EE0027FDE1CF0895CF92DF92EF925E
:101F2000FF920F931F93CF93DF93C8EDD0E088818A
:101F30008F7E8883E7EDF0E080818160808384E09C
:101F400082BF81E08093D00188818E7F888302EEFA
:101F500010E0F80110821092DA0081EEC82ED12C28
:101F6000F601108288818F778883888180688883D2
:101F700088818F7D888319BC109235061092CF011D
:101F8000109234061092CE0190EEE92EF12CF7015A
:101F900080818B7F808388818160888342E060E0DC
:101FA00080E00E945D0FF60180818E7F8083F801C2
:101FB000808181608083808188608083F701808157
:101FC0008E7F8083888180618883DF91CF911F918C
:101FD0000F91FF90EF90DF90CF9008958091770759
:101FE000811110C08091D80080618093D8008AE16F
:101FF0008A95F1F700C08091D90080FD0AC082E087
:102000008093770781E090917707913009F080E025
:10201000089581E0F5CF60912B018091880780FFC2
:1020200020C080912A0143E0849FC0011124855C77
:10203000984F539A2BB1277F3BB138605FB7F89424
:10204000FC01649FE00DF11D1124BF0168177907A1
:10205000D1F45FBF8FE594E00197F1F700C0000075
:10206000089580912C0190912D0123E0829FF00131
:102070001124E55CF84F8917A0F6118210821282B4
:102080008F5F3396F8CFFC014191CF01E8E03BB977
:10209000000000C047FF2BB9440F000000C000C083
:1020A00000C02BB900C0EA9591F7D0CF9091880776
:1020B00090FF14C090912C0120912D0133E0939F4B
:1020C000F0011124E55CF84F921710F00C940B10FE
:1020D0008183608342839F5F3396F6CF0895CF93C9
:1020E000DF9300D00F92CDB7DEB79091880790FFB5
:1020F0000AC09E012F5F3F4F0E94990A4B81698160
:102100008A810E9456100F900F900F90DF91CF910F
:102110000895CF93DF93EC01EC81F0E0EF53F34FA0
:102120004491E8E8F7E0628181810E946F108C8120
:102130008F5F8C83DF91CF910895CF93DF93EC0174
:10214000E8E8F7E0438162818C810E946F108C8106
:102150008F5F8C83DF91CF9108950F931F93CF935F
:10216000DF9300D00F92CDB7DEB78C018091380796
:1021700081110AC09E012F5F3F4F46E96FEF0E9419
:10218000990A8A8180933807F8016481613049F0A7
:102190006230F1F08091380740E0662331F040E092
:1021A00019C06091380740E080E00E945610F801A5
:1021B000848190E0019663E070E00E94DD318483C9
:1021C0000F900F900F90DF91CF911F910F91089575
:1021D0004091380780E060E0E8CFEF92FF921F93D4
:1021E000CF93DF93EC0110E0EE24EA94F12C6091A0
:1021F0002E01161770F00E940B109A818C8190FFAF
:1022000027C08F5F8C83DF91CF911F91FF90EF905C
:10221000089520912C01422F410F5527551FCA01C7
:102220009A01220F331F280F391F255C384F70E0A9
:10223000C7010E94DD31962F8C8140918B07609100
:102240008A07199F800D11240E94990A1F5FCFCF22
:102250008150D8CF9F92AF92BF92CF92DF92EF92F0
:10226000FF920F931F93CF93DF93EC018A81BB24DE
:10227000BA9480FD02C0BB24B394A0902E018C813F
:10228000811109C081E0B81225C08FEF8A0D8093BB
:102290003A0781E08C83F12CE12CEA14F0F00E94E3
:1022A0000B1080913A0791E0B9125EC0811157C0BE
:1022B00080912E01815080933A071C82DF91CF914B
:1022C0001F910F91FF90EF90DF90CF90BF90AF9054
:1022D0009F90089510923A07DCCF80912C018E0DCB
:1022E0009F2D911D8C01000F111F080F191F055CF8
:1022F000184FF80111821082128234E0C32ED12CC3
:10230000912C80913A07890D85312CF164E10E946E
:10231000BB31892F082E000C990B8E159F0591F467
:1023200080918B078C9DA0018D9D500D112455959A
:10233000479555954795980160918A07809189073F
:102340000E94990A9B0CF1E0CF1AD108D1F68FEFC9
:10235000E81AF80AA2CF87FFDDCF8A0DDBCF8150C4
:1023600080933A07BC82AACF90E0019660912E013B
:1023700070E00E94DD3180933A078C839FCFCF922B
:10238000DF92FF920F931F93CF93DF93EC018C8129
:10239000811109C081E08C831092390792E09093FB
:1023A00029018093280110912C0190912D0183E047
:1023B000189FF0011124E55CF84F812F891778F1FF
:1023C00000E093E0F92E60912E01061770F10E9453
:1023D0000B108091280120913907280F209339078D
:1023E00090912901980F90932901191654F4022E07
:1023F000000C330B40912E014150550B241735072B
:1024000034F0819580932801813009F41C82DF919A
:10241000CF911F910F91FF90DF90CF90089511827F
:10242000108212828F5F3396C9CFC02ED12C70E0FC
:10243000C6010E94DD31810F482F50E020913907FD
:10244000022E000C330BC216D306BCF020912901DA
:10245000022E000C330B2C153D057CF08F9D900156
:102460001124255C384F40918B0760918A07809139
:1024700089070E94990A0F5FA6CFFA01EE0FFF1F8E
:10248000E40FF51FE55CF84F118210821282F3CF42
:10249000EF92FF920F931F93CF93DF93CDB7DEB7E9
:1024A0002E970FB6F894DEBF0FBECDBF8D879E87E7
:1024B000AD85BE8514961C91212F30E0D9010E9474
:1024C0001B369B01AC010E94E63569837A838B83BE
:1024D0009C83E0E2F0E0E11BF109A5E5B0E09B019F
:1024E000AC010E94E63569877A878B879C879F01BC
:1024F000DF010E94F7316D837E838F8398879B0174
:10250000AC010E94F1359B01AC0169817A818B811C
:102510009C81260F371F481F591F69857A858B8537
:102520009C850E94F935F22E822F90E079E2721795
:1025300088F183E0289F9001112435952795122F6B
:10254000109500E085E5E82EEF1880912E01081720
:1025500080F10E940B10AD85BE8514969C9181E0A0
:10256000992319F0903219F48FEF8093270180910D
:102570002701890FED85FE8584832E960FB6F8948A
:10258000DEBF0FBECDBFDF91CF911F910F91FF90A6
:10259000EF90089525E530E0D901A81BB90B9D0106
:1025A000220F331F2A0F3B1F37FFC7CF2F5F3F4F2D
:1025B000C4CF8E2D01FD8F2D20912C01E22FE00F35
:1025C000FF27FF1F9F01220F331F2E0F3F1F255C88
:1025D000384F412F60918A070E94990A0F5FB5CF4B
:1025E0000F931F93CF93DF93EC0110E000E09091E5
:1025F0002E019017110609F06CF40E940B108C81CB
:1026000090E00196817099278C83DF91CF911F9183
:102610000F91089580912C01A801480F511D9A0136
:10262000220F331F240F351F255C384F4C816091DA
:102630008A078091890796959017110651F04CF002
:10264000442349F040918B070E94990A0F5F1F4F66
:10265000CECF4423B9F340E0F7CFCF93DF93D82F09
:10266000C92F81E08093E9008FEF9091E8008150BD
:1026700095FD06C095ED9A95F1F700008111F5CF13
:102680008091E80085FF16C050E040E068E070E00F
:102690008D2F9C2F0E94330F8091E8008E778093BE
:1026A000E80088E0ED2FFC2FA6E3B6E001900D9244
:1026B0008A95E1F7DF91CF91089522E02093E90018
:1026C0002FEF3091E800215035FD06C035ED3A95E9
:1026D000F1F700002111F5CF2091E80025FF0BC094
:1026E00050E040E066E070E00E94330F8091E80027
:1026F0008E778093E8000895CF93DF9300D00F92F8
:10270000CDB7DEB790913506943019F589836A8389
:102710007B8382E08093E9008FEF9091E800815005
:1027200095FD06C095ED9A95F1F700008111F5CF62
:102730008091E80085FF0DC050E040E063E070E06C
:10274000CE0101960E94330F8091E8008E7780932E
:10275000E8000F900F900F90DF91CF910895BC018A
:1027600083E00C947C13BC0184E00C947C130F93E5
:102770001F93CF93DF938B01D82FC92F0E94320B69
:10278000A8016D2F7C2F88E090E0DF91CF911F9101
:102790000F910C94A535E8E8F7E083E0808311827F
:1027A0008FEF828386E983831482EFE7F7E08281EB
:1027B0008360828363E070E08FEF96E90C94B71337
:1027C000CF93DF9300D000D0CDB7DEB780918C07D8
:1027D000833018F48F5F80938C07809188079091E5
:1027E0008907A0918A07B0918B0789839A83AB836D
:1027F000BC83BC01CD010F900F900F900F90DF9123
:10280000CF910C94B713CF93DF9300D000D0CDB706
:10281000DEB780918C07882319F0815080938C0754
:102820008091880790918907A0918A07B0918B07C2
:1028300089839A83AB83BC83BC01CD010F900F9039
:102840000F900F90DF91CF910C94B713AF92BF927E
:10285000CF92DF92EF92FF920F931F93CF93DF936C
:1028600000D000D000D00F92CDB7DEB7182FF62ED3
:10287000042FD22E9091880790FF96C0E92FE695FD
:10288000AE2FB0E0AE5ABE4F8C9180937F079E7FF3
:10289000923009F045C09E012F5F3F4F812F0E946B
:1028A000990A4B8169818A810E945610809189071B
:1028B000811308C080918A078F1104C080918B0713
:1028C000801729F08091810782608093810710939F
:1028D0008907F0928A0700938B07DD2009F464C012
:1028E0008091880790918907A0918A07B0918B0702
:1028F0008C839D83AE83BF83BC01CD0127960FB629
:10290000F894DEBF0FBECDBFDF91CF911F910F9125
:10291000FF90EF90DF90CF90BF90AF900C94B713E3
:10292000823019F400918B07C1CF863019F41091D1
:102930008907BCCF8930D9F3893109F0B7CFE95184
:102940008E2F8170C82EE695F0E0EF53F24FA590E0
:10295000B490E12CBB2460912E01E61618F00E9481
:102960000B10A4CF2E2D30E0EA9CC001EB9C900D03
:10297000112470E00E94C931812FC11013C0860F4D
:1029800090912C01A901490F511D9A01220F331F6B
:10299000240F351F255C384F402F6F2D0E94990A58
:1029A000E394D9CF861BECCF27960FB6F894DEBF01
:1029B0000FBECDBFDF91CF911F910F91FF90EF9090
:1029C000DF90CF90BF90AF900895E8E8F7E0818165
:1029D00021E043816281865F0C942614E8E8F7E0E9
:1029E000818121E0438162818A500C942614E8E8B9
:1029F000F7E062812AE0620F08F46FEF21E0438183
:102A000081810C942614E8E8F7E062812AE0621BD9
:102A100008F460E021E0438181810C942614E8E809
:102A2000F7E043812AE0420F08F44FEF21E0628192
:102A300081810C942614E8E8F7E043812AE0421BE8
:102A400008F440E021E0628181810C9426148F9289
:102A50009F92AF92BF92CF92DF92EF92FF920F932D
:102A60001F93CF93DF93FC01B280948081E0848335
:102A700000E015E05BE4A52E88248394EE24EA941C
:102A8000F12C7BE4C72ED12C80912E01081770F019
:102A9000DF91CF911F910F91FF90EF90DF90CF903A
:102AA000BF90AF909F908F900C940B10C02FD0E0F0
:102AB0001C9FF0011D9FF00D1124EC52F94F911055
:102AC0001CC01382128280912C018C0F9D2F911DAE
:102AD0009C01220F331F280F391F255C384F1C9F84
:102AE000F0011D9FF00D1124EC52F94F42816181DC
:102AF00080810E94990A0F5FC7CF2381222379F139
:102B00002150238334818A2D821B311101C0822FF1
:102B10001C9FF0011D9FF00D1124EC52F94F909174
:102B20008B07899FC0011124B6010E94C9316283BD
:102B3000211104C0332311F01482A38222E02B154B
:102B400010F21C9FF0011D9FF00D1124EC52F94F63
:102B500080918907808380918A078183B4CF0E9406
:102B6000A532823091400CF0AECF82E08B1530F56B
:102B70000E94A532B7010E94DD311C9FF0011D9F0C
:102B8000F00D1124EC52F94F808322E02B15C8F48C
:102B90000E94A53220918A072695622F70E00E943C
:102BA000DD31280F1C9FF0011D9FF00D1124EC5208
:102BB000F94F21831282A382848285CF8091890775
:102BC000DCCF20918A07EECF6CEE7EEF90E080E0C4
:102BD0000E94B13560E082E090E00E94933560E0B1
:102BE00083E090E00E94933510928D0610928E063D
:102BF00010928F061092900660E084E090E00E94B0
:102C0000933560E081E290E00E94933560E085E0DA
:102C100090E00E94933560E086E090E00E9493355A
:102C20006FEF87E090E00E94933540E050E0BA01FA
:102C300088E090E00E94A53560E08DE090E00E9481
:102C4000933540E050E0BA0188E190E00E94A5355C
:102C500060E087E190E00E94933540E050E0BA01E7
:102C60008CE190E00E94A53560E080E290E00E9457
:102C7000933540E050E0BA0188E190E00E94A5352C
:102C800040E050E0BA018FE090E00E94A53540E0BE
:102C900050E0BA0183E190E00C94A535CF9384E035
:102CA00090E00E947F35C82F81E290E00E947F353E
:102CB000982F8C2FCF910895CF92DF92EF92FF92B1
:102CC0000F931F93CF93DF936C017B0164E670E059
:102CD00088E70E94FE2EEC018601EC0CFD1C97FD9E
:102CE0000EC0F801849164E670E00E945A2FEC0156
:102CF000892B29F40F5F1F4FE016F10691F70E9410
:102D0000E72FCE01DF91CF911F910F91FF90EF90B0
:102D1000DF90CF900895CF93DF9300D000D0CDB750
:102D2000DEB7809129068823F9F00E940B0DDC01A3
:102D3000CB01805A9541AF4FBF4F809324069093AB
:102D40002506A0932606B0932706809128068111B8
:102D50000BC062E070E08CEA90E00E945C16892B68
:102D600019F481E0809328060F900F900F900F9038
:102D7000DF91CF910895CF93DF93682F8091DE018B
:102D80009091DF016A30B9F42091DD0180529240C8
:102D9000622F70E00E94C931281B822F66E00E94DA
:102DA000AF31C82FC15018F4DF91CF91089580E260
:102DB0000E94BB16F7CF6D30F9F49C0120523240CF
:102DC0004091DD01642F70E0C9010E94C931481BA8
:102DD000842FA901480F511D4115544018F080E07F
:102DE00030E020E0820F932F911D805E9D4F9093E5
:102DF000DF018093DE01D8CF26E0FC01A7ECB1E033
:102E000001900D922A95E1F7603E08F458C026E043
:102E1000FC0111922A95E9F7C091DE01D091DF0102
:102E200046E050E0BE0187EC91E00E94CB329E016B
:102E300020523240892B41F1C90146E09695879591
:102E40004A95E1F741E050E0BA0102C0660F771FF2
:102E50008A95E2F7CB016091220670912306862BBA
:102E6000972BB9016B5F7F4FE6E076956795EA9502
:102E7000E1F702C0440F551F6A95E2F7842B952BAA
:102E800090932306809322062A5F3F4F4091DD01F5
:102E9000642F70E0C9010E94C931481B463010F40C
:102EA000240F311D211574E0370710F030E020E0C9
:102EB000205E3D4F3093DF012093DE0175CFF6E0B9
:102EC0006F9FB001112462557F4F46E050E00E9491
:102ED000B532A2CFCF93DF93EC01FE018491811133
:102EE00003C0DF91CF9108950E94BB162196F5CFC4
:102EF0001F921FB61F9211248F939F93AF93BF937E
:102F000080914706811113C0809143069091440639
:102F1000A0914506B09146064196A11DB11D809332
:102F2000430690934406A0934506B0934606BF918E
:102F3000AF919F918F911F901FBE1F9018952FB733
:102F4000F8948091430690914406A0914506B09173
:102F500046062FBF089560918807669570E04BE0A4
:102F600050E08FE291E00E94BE32892B19F481E09B
:102F7000809380070E949F17909383078093820716
:102F8000809181078460809381070895CF93DF93B8
:102F900000D000D0CDB7DEB79091880790FF47C032
:102FA000917081113AC09260909388078091810757
:102FB000816080938107662381F0809188079091DA
:102FC0008907A0918A07B0918B0789839A83AB8385
:102FD000BC83BC01CD010E94B71360918807669540
:102FE00070E04BE050E08FE291E00E94BE32892B0E
:102FF000D9F00E94480B81E08093850720E0409142
:103000008B0760918A07809189070F900F900F902E
:103010000F90DF91CF910C9426148B3210F09465B1
:10302000C3CF880F982BC0CF0E94AB17E4CF0F906F
:103030000F900F900F90DF91CF91089580918807A6
:1030400086958F5F8B3208F081E061E00C94C617A3
:103050009091880796958FEF890F913009F48AE255
:1030600061E00C94C6179091880790FF07C0969571
:10307000981720F0961710F40C941E1861E00C9429
:10308000C6170E949F172091760630917706232B52
:1030900021F080934106909342062091780630916A
:1030A0007906232B21F080933F0690934006E09110
:1030B000D206F091D306309749F082E080937406EF
:1030C0000480F581E02D84E796E009940895CF937C
:1030D000C82F882309F48FC08238C1F40E94550B91
:1030E00081FD89C089E30E949D0C0E94C90C2FEFCD
:1030F00031EE84E0215030408040E1F700C0000014
:1031000089E30E94B60CCF910C94C90C8338A1F4CA
:103110000E94550B80FD6FC083E50E949D0C0E94AC
:10312000C90C9FEF21EE34E0915020403040E1F790
:1031300000C0000083E5E5CF8438A1F40E94550B60
:1031400082FD59C087E40E949D0C0E94C90C8FEF3C
:1031500091EE24E0815090402040E1F700C0000053
:1031600087E4CFCF8CEF8C0F813A68F4EFEBF1E07E
:103170008191C817D1F131E0E53CF307C9F78C2FF5
:103180000E949D0CC0CF80E28C0F883068F4C7701D
:1031900021E030E001C0220FCA95EAF780918A064B
:1031A000822B80938A06AFCF8BE58C0F833038F467
:1031B0002C2F2452330BC901CF910C94610BE8E5FD
:1031C000EC0FE73150F4F0E0EE0FFF1FE357FE4F36
:1031D00080819181CF910C94770BC03F60F08C2F50
:1031E0000E947C0DCF910C9441188C2F0E94B60C3C
:1031F0000E94C90CC4CFCF910895882309F459C007
:10320000823871F40E94550B81FF53C089E30E94FC
:103210009D0C0E94C90C89E30E94B60C0C94C90C49
:10322000833859F40E94550B80FF43C083E50E9408
:103230009D0C0E94C90C83E5EFCF843859F40E949D
:10324000550B82FF36C087E40E949D0C0E94C90C7A
:1032500087E4E2CF9CEF980F913AF0F290E2980F5A
:10326000983088F4877021E030E0A90102C0440F53
:10327000551F8A95E2F7CA01809590918A068923A5
:1032800080938A06CBCF9BE5980F933020F490E093
:1032900080E00C94610B98E5980F973120F490E052
:1032A00080E00C94770B803F20F00E94E40D0C949A
:1032B00041180895CF93C82F0E946718C93349F465
:1032C0002FEF87EE93E0215080409040E1F700C05F
:1032D00000008C2FCF910C94FD180F931F93CF9368
:1032E000DF938C01EB0180913C0182FF2FC08B7F2B
:1032F00080933C0180917B0720917D0730917E0770
:10330000AB01421B530B20913A0130913B01421714
:10331000530788F40E94671880913C018D7F809349
:103320003C0180917B070E94FD1880918B068D7F68
:1033300080938B0615C090918B06926090938B06BC
:103340000E94671880913C018260E9CF802F0E9423
:10335000FD1880917B0790917C070817190729F3C6
:103360000E94C90CD0937E07C0937D07DF91CF9157
:103370001F910F910895AF92BF92CF92DF92EF927B
:10338000FF920F931F93CF93DF93CDE7D1E085EAB0
:10339000C82E87E0D82E91E8E92E91E0F92EB12CC5
:1033A00001E010E08991F894E82FE295EF70A1E236
:1033B000AE0FB0E02C918F70A80102C0440F551FD2
:1033C0008A95E2F7CA01922F982B9C93EE5DF0E06C
:1033D0009081809589238083789450EA5A95F1F7FB
:1033E000E5E8F1E030E020E0A12C4191A42FA29586
:1033F000AF70A05EB0E08C9190E04F7002C09595E8
:1034000087954A95E2F780FD42C0802F022E01C0C9
:10341000880F0A94EAF7A82A2F5F3F4F283031051A
:1034200021F7FE01319780810E947C0AD6018C91A0
:10343000A81679F1AC9281E0B82ABFEFCB1ADB0A6B
:10344000EC16FD0609F0AECFC091A407BB2019F120
:1034500081E080937A070E949F1790937907809369
:10346000780780917807909179070E942B0D069735
:10347000B0F0AC2FB0E0A456B84F84E0E5EAF7E036
:1034800001900D928A95E1F710927A0708C080E0CA
:10349000C2CF80E0D1CF80917A078111E2CF0E9424
:1034A000EE0F882309F474C0C0919B0780918107B7
:1034B0008823E9F085E0E8E8F7E0ADE8B7E00190BF
:1034C0000D928A95E1F780917F0790918007A091F6
:1034D00081078093920790939307A093940781E0CC
:1034E00090E00E943031892B11F41092810790E016
:1034F00080E00E9430319C01892B71F180919A0704
:103500008F5F80939A078630C0F580913C0182FFDF
:1035100017C00E949F17BC0180917D0790917E0784
:103520009B01281B390B80913A0190913B01281790
:10353000390730F080917B0790917C070E946D19CC
:103540008B2DDF91CF911F910F91FF90EF90DF9026
:10355000CF90BF90AF900895EC2FF0E0E456F84F75
:10356000D901AA56B84F8C9181932F5F3F4F2430D9
:103570003105B1F710929A07C8CFE0919B07F0E0B0
:10358000E456F84F84E0DF011D928A95E9F7BDCF3C
:10359000E091A407CE2FD0E080919507883099F56F
:1035A0008091940780FF0FC090918D0780918807CC
:1035B00090FF37C081608093880780918D0760E01D
:1035C00086950E94C6178091940781FF09C020E06C
:1035D0004091900760918F0780918E070E9426147A
:1035E0008091940782FF06C080919307882379F128
:1035F0000E94AB178091940783FF03C081E0809302
:10360000850710929507C456D84F90E080E0299125
:10361000DC01AA56B84F2C93019684309105B9F776
:103620008FCF8E7F809388070E94480B80918107FF
:10363000816080938107BFEFE0E7F2E0B150E040A6
:10364000F040E1F700C000000E940B10BCCF0E94C8
:10365000480BD0CF10928B06109270060E94C90CB6
:1036600086E0E4E7F6E0DF011D928A95E9F7109223
:10367000730610927206109271060E94411890E033
:1036800080E00E94610B90E080E00C94770B109238
:103690008A06EFEBF1E086E0DF011D928A95E9F7FB
:1036A0000C942A1B1F93CF93DF93CDB7DEB7AA9755
:1036B0000FB6F894DEBF0FBECDBF81ED91E0FC01E7
:1036C00001962091F100208321E0893D9207B9F70E
:1036D0008091D201893009F456C0C8F4823009F4CF
:1036E000B1C0833009F480C0813071F18091E8006D
:1036F00083FF78C28091D1019091D2019A3008F075
:1037000071C2E92FF0E0E45DF94C0C94F1318A309C
:1037100009F487C08B3051F78091D101813231F7A4
:103720008091D5019091D601892B01F78091E80015
:10373000877F8093E8000E94C40E8091D30180931C
:1037400026010E94471BD2CF8091D101813A71F6A8
:103750008091E800877F8093E8008091D501909167
:10376000D601892B61F468E086E396E070E00E9460
:103770006A0E8091E8008B778093E800B7CF60E015
:1037800090E080E0F3CF8091D101813209F0AECF9B
:103790008091D5019091D601029708F0A7CF809132
:1037A000E800877F8093E8008091E80082FF17C0DF
:1037B0009091F3008091F200029729F48091F1003A
:1037C0008B7F813021F48091F10080933E068091BF
:1037D000E8008B778093E8000E94C40E87CF809129
:1037E00035068111E1CF82CF8091D101813A09F074
:1037F0007DCF8091D5019091D601892B09F076CFAC
:103800008091E800877F8093E8008091E80080FF46
:10381000FCCF809126018093F1008091E8008E77A3
:10382000D9CF8091D101813209F060CF8091E80039
:10383000877F8093E8000E94C40E8091D40180931A
:10384000CD0154CF8091D101813A09F04FCF8091C1
:10385000E800877F8093E8008091E80080FFFCCF3C
:103860008091CD01D8CF803899F0823809F0BAC163
:103870008091D5018F70873008F0B4C18093E90042
:103880008091EB0085FB882780F91092E90006C043
:103890008091CE0190913406911182609091E80060
:1038A000977F9093E8008093F1001092F10080914F
:1038B000E8008E7793C1882309F481C1823009F032
:1038C00091C18091D301811184C18091D5018F7004
:1038D0002FEF280F263008F085C18093E900209152
:1038E000EB0020FF76C1933031F48091EB008062D1
:1038F0008093EB006EC19091EB0090619093EB0090
:1039000021E030E001C0220F8A95EAF72093EA0017
:103910001092EA008091EB008860EACF811162C1C9
:103920001091D3011F778091E3008078812B8093E1
:10393000E3008091E800877F8093E8000E94C40E36
:103940008091E80080FFFCCF8091E3008068809345
:10395000E30082E0111183E08093350643C1805873
:10396000823008F03FC14091D3015091D4014C3DC9
:1039700083E0580799F583E08A838AE289834FB709
:10398000F894DE01139620E03EE051E2E32FF0E0F0
:1039900050935700849120FF03C082958F703F5F42
:1039A0008F708A30C8F0895C90E08D939D932F5F73
:1039B000243161F74FBF8091E800877F8093E80052
:1039C0006AE270E0CE0101960E946A0E8091E800E2
:1039D0008B778093E80006C1805DE6CF2091D5010A
:1039E0003091D601852F99278330910509F160F434
:1039F0008130910509F472C0029709F0F3C08BE39E
:103A000090E0EFEAF6E029C08132910509F45AC04E
:103A1000829709F0E7C02115310509F469C021300A
:103A2000310509F0DFC081E890E0EEEEF5E015C069
:103A3000CA0199274130B1F18230910509F43AC0A9
:103A4000892B09F0CFC0EEE2F7E0E4918E2F90E0F1
:103A5000EEE2F7E0009709F4C5C02091E800277F67
:103A60002093E8002091D7013091D8018217930765
:103A700008F49C0140E02115310509F03EC04111D8
:103A80003CC08091E80082FDA1CF8091350688235B
:103A900009F49CCF853009F499CF8091E80083FF29
:103AA000F0CF94CFECE1F7E0E4918E2F90E0ECE1E1
:103AB000F7E0D0CFECEFF6E0E4918E2F90E0ECEF62
:103AC000F6E0C8CF2115310571F02130310509F03C
:103AD00089C089E090E0EAEDF6E0BFCF82E190E0B6
:103AE000EAEEF6E0BACF89E090E0E1ECF6E0B5CF9F
:103AF00080E490E0EFE6F6E0B0CF809135068823D1
:103B000009F464CF853009F461CF8091E80083FD2A
:103B10005DCF8091E80082FDB4CF8091E80080FF06
:103B2000AACF9091F3008091F2002115310519F090
:103B30008830910550F041E0089709F040E080910D
:103B4000E8008E778093E80096CF44914093F1008F
:103B50003196215031090196E8CF803809F042C0F2
:103B60008091E800877F8093E8008091CF01809367
:103B7000F1009DCE811136C01091D301123090F525
:103B80008091E800877F8093E8001093CF010E9426
:103B9000C40E112311F084E005C08091E30087FD7D
:103BA000FACF81E08093350642E061EC81E00E942B
:103BB0005D0F42E261EC82E00E945D0F13C08091D4
:103BC000D301813079F481E0933009F080E0809373
:103BD00034061092E9008091E800877F8093E80026
:103BE0000E94C40E8091E80083FF0AC08091E80023
:103BF000877F8093E8008091EB0080628093EB00E8
:103C0000AA960FB6F894DEBF0FBECDBFDF91CF915D
:103C10001F91089560938D0670938E0680938F0692
:103C2000909390060C942A1B462F572FBC01DC0161
:103C3000CA0186709927AA27BB270697A105B10557
:103C400059F448604093910650939206609393060E
:103C5000709394060C942A1B477FF4CF0F931F9305
:103C6000CF93DF9300D000D0CDB7DEB741E050E076
:103C700060E070E004C0440F551F661F771F8A95EF
:103C8000D2F78091910690919206A0919306B091FF
:103C900094068A019B01082B192B2A2B3B2B0983A5
:103CA0001A832B833C83C901B8010F900F900F90AA
:103CB0000F90DF91CF911F910F910C94141E0F93D1
:103CC0001F93CF93DF9300D000D0CDB7DEB741E094
:103CD00050E060E070E004C0440F551F661F771F7E
:103CE0008A95D2F740955095609570958091910690
:103CF00090919206A0919306B09194068A019B013F
:103D0000082319232A233B2309831A832B833C830B
:103D1000C901B8010F900F900F900F90DF91CF91D4
:103D20001F910F910C94141E9091950680958923F4
:103D300080939506282F277071F4282F082E000CE9
:103D4000330B9217130639F08595859585950E945A
:103D50005F1E109295060895FF920F931F93CF93C5
:103D6000DF93C62FD42F122F8823A9F060938806E3
:103D70000E949F179093C6018093C501C77081E090
:103D800001C0880FCA95EAF7DF91CF911F910F917B
:103D9000FF900C94F60C80918806681334C08091D3
:103DA000C5019091C6010E942B0D883C910558F5E4
:103DB00000E20D0FCD17A9F0C770FF24F3948F2DEB
:103DC00001C0880FCA95EAF70E94000D083048F438
:103DD0008D2F877001C0FF0C8A95EAF78F2D0E9406
:103DE000F60C812F0E945A190830A0F4D77081E098
:103DF00001C0880FDA95EAF7DF91CF911F910F91FB
:103E0000FF900C94000DC77081E001C0880FCA9527
:103E1000EAF7F2CFDF91CF911F910F91FF900895B4
:103E20006F927F928F929F92AF92BF92CF92DF92CA
:103E3000EF92FF920F931F93CF93DF93CDB7DEB72F
:103E40002C970FB6F894DEBF0FBECDBF7C01DC010E
:103E500013968D919C911497892B41F011968C911A
:103E600011979C9189238F3F09F0D0C52C960FB6EE
:103E7000F894DEBF0FBECDBFDF91CF911F910F91A0
:103E8000FF90EF90DF90CF90BF90AF909F908F907A
:103E90007F906F90089510928706EDC507312CE54D
:103EA000120791F481E0809387060E949F179093F8
:103EB00086068093850610928406EAE7F6E08AE09B
:103EC000DF011D928A95E9F70E949F176C01F701A7
:103ED0008281882341F180913C0182FF05C0B601B7
:103EE00090E080E00E946D1980918B068D7F809319
:103EF0008B060B31FCE51F0709F479C0C0F50931C9
:103F00003CE5130709F47EC00A314CE5140709F4B7
:103F100083C080913A0190913B01059608315CE5A0
:103F2000150709F474C0D70112968C91980124509A
:103F300031092432310508F01FC1882309F417C163
:103F400080913C0180FF21C090918A069D7FE9F419
:103F500010937C0700937B07C0927D07D0927E0769
:103F6000846080933C0182E00E94941E84C50C31E1
:103F70006CE5160709F442C080913C018E7F0D313B
:103F80007CE5170781F680933C01D70112969C913E
:103F9000992309F4C6C5109288060631BCE51B07B3
:103FA00008F025C10230ECE51E0708F486C50E9422
:103FB0004E169093AE078093AD070631FCE51F07C0
:103FC00008F03EC102302CE5120708F02CC16091C8
:103FD000AD071091AE0784E090E00E949335612F09
:103FE00081E290E00E9493350E94471B44C5909166
:103FF0003C01892F8E7F90FF8160C5CF80913C016D
:104000008160C1CF80913A0190913B0105979093D7
:104010003B0180933A01B9CF80913B018F9380910E
:104020003A018F938DE391E09F938F931F9288E0E5
:104030008F93CE0101966C019F938F930E94D8328B
:104040000FB6F894DEBF0FBECDBF3AE0632EF60187
:104050008081882309F499CF813009F049C091818A
:104060008281913049F4F2E0CF0ED11C0E945A199E
:104070003FEFC31AD30AEBCF923031F422E0C20EE5
:10408000D11C0E946718F4CF933031F432E0C30E94
:10409000D11C0E94FD18ECCF943021F04FEFC41AD0
:1040A000D40AE6CF52E0C50ED11C20E030E0A601D4
:1040B0004F5F5F4F8053990B8A30910560F0211557
:1040C0003105B1F2EFE9FFE03197F1F700C00000F0
:1040D00021503109F4CF629EB001639E700D11240E
:1040E0009C01260F371FD60111968C916A01DFCFF4
:1040F000E82FF0E0EF5BF34F7490282F269526957C
:10410000269530E0F901EF5CF34F84908770912C95
:10411000082E02C0959487940A94E2F7F1E08F226A
:104120009924F901EF5DF34FA490B12C02C0B5942E
:10413000A7948A95E2F721E0A222BB24811491047E
:1041400019F081EE0E946718A114B10419F086EEEF
:104150000E946718872D0E945A19AB2819F086EE25
:104160000E94FD18892809F483CF81EE92CFB60111
:10417000C8010E946D197FC4053FBCE51B0761F1B2
:1041800098F40A3DFCE51F0719F10B3D2CE51207D9
:1041900059F126E241EE61EE093D3CE5130709F0D5
:1041A000F4CE0E94AC1E67C4073F4CE51407C1F073
:1041B00027E245EE66EE083F5CE5150791F3063F02
:1041C0006CE5160709F0E1CE27E245EE64EEE9CF93
:1041D00027E245EE65EEE5CF26E241EE60EEE1CF67
:1041E00026E241EE62EEDDCF28E241E0F3CF980116
:1041F0002C5F3C452930310508F4D9CE0631ECE579
:104200001E0709F05AC480918A068A7A91E009F45F
:1042100090E0909389068111A9C089E20E949D0CCB
:104220000E94C90C28C4F801E350FC458091AD07F9
:104230008160E331F10590F4EA5CF94C0C94F131C2
:104240000C5F1C450930110508F0C1CE075B194C05
:10425000F8010C94F1318091AD0782608093AD0735
:10426000B6CE8091AD078460F9CF8091AD078860AC
:10427000F5CF8091AE0781608093AE07A8CE809184
:10428000AE078260F9CF8091AD078061E7CF809162
:10429000AD078062E3CF8091AD078064DFCF0E94DD
:1042A000471B8091AD078068D9CF8091AD078C60A6
:1042B000D5CF8091AE078360DFCF8091AD078E7F31
:1042C000CDCF8091AD078D7FC9CF8091AD078B7F1A
:1042D000C5CF8091AD07877FC1CF8091AE078E7F1C
:1042E000CBCF8091AE078D7FC7CF8091AD078F7EFA
:1042F000B5CF8091AD078F7DB1CF8091AD078F7B1A
:10430000ADCF0E94471B8091AD078F77A7CF8091DB
:10431000AD07837FA3CF8091AE078C7FADCF809117
:10432000AD0782FB992790F921E0922790FB82F953
:1043300090FB83F993CF8091AE07982F9095917061
:104340008E7F892B90FB81F997CF0E94471B90911C
:10435000AD07892F97FB87F9805880CF61E08EE009
:1043600090E00E94933533CE60E0F9CF85E356CFDD
:1043700080918906811104C089E20E94B60C50CF59
:1043800085E3FBCF8091880780FF26C08E7F8093D6
:104390008807009188071091890720918A0730913A
:1043A0008B0709871A872B873C87C901B8010E94B0
:1043B000B7130E94480B8091810781608093810729
:1043C0001FEF20E732E0115020403040E1F700C0FD
:1043D00000000E940B104FC381608093880761E04A
:1043E00086950E94C61747C348E258E16EE178E11E
:1043F0000E94500B40C34EE158E168E278E1F8CFEB
:104400004EEE54E165EE74E1F3CF45EE54E16EEE0D
:1044100074E1EECF43E055E167EF74E1E9CF47EF98
:1044200054E163E075E1E4CF4BE155E16FE075E104
:10443000DFCF4FE055E16BE175E1DACF43E054E1C6
:1044400060EE73E1D5CF40EE53E163E074E1D0CF8D
:1044500061E081E0C6CF65E082E00E9433180BC3C3
:1044600068E086E0FACF6EE089E0F7CF64E18FE0A4
:10447000F4CF67E185E1F1CF61E088E1B2CF62E29C
:1044800089E1EBCF61E083E2ACCF003E1C4509F44B
:1044900044C0F701C080D180992309F441C0C6010E
:1044A0000E94ED0B182F682FC6010E94970BB601D2
:1044B000812F0E94EF088C01D7011596CC9015979B
:1044C000C2942FE0C2221296DC90D11010928B067B
:1044D00080919506877099F0DD2089F0812F807F8B
:1044E000803421F080E2800F883048F082E00E9422
:1044F000941E809195068770992493948111912C34
:10450000812F82958F70A82EB12C8C3008F043C07B
:10451000F501EE5AF94C0C94F1310E94E415ABC24E
:10452000C6010E94C40B182FC2CFB12FBF70CB2E73
:10453000107F19F0C29490EFC922DD20C9F0CC2081
:1045400069F080E2800F883010F001110BC080917B
:104550008A06C82AC0928A060E94C90C802F0E942F
:10456000671819C080918B06C82AC0928B06F4CFB9
:10457000802F0E94FD18CC2071F0C09480E2800F43
:10458000883010F001113FC080918A06C822C09285
:104590008A060E94C90CA8E0AA1AB108B4E0AB16BA
:1045A000B10410F40E94550B9920A9F08091950652
:1045B00080FD11C0F70112828595859585950E9431
:1045C0002E1EC7010E94101F809195068595859526
:1045D00085950E945F1E60E0C7012C960FB6F89487
:1045E000DEBF0FBECDBFDF91CF911F910F91FF9026
:1045F000EF90DF90CF90BF90AF909F908F907F9083
:104600006F900C942F0C80918B06C822C0928B0661
:10461000C0CFE12FEF708E2E107F103219F08294F0
:1046200080EF8822002381F0013079F1DD20D1F183
:10463000CC2089F1D70115968C91159780FF8ECFEC
:104640008F7015968C9327C0DD2091F090918C0689
:10465000892F8829C11003C00E94F60C9CCFF1E07D
:10466000CF12FACF981709F496CF80938C0693CF88
:10467000C11006C00E94C30C882D0E94000D8BCF74
:1046800001E0C01609F487CFF5CFDD2031F015E049
:104690001C1508F480CF882DDFCF24E02C1508F4FA
:1046A0007ACFEACFCC2041F3093349F4BFEFE7EEEC
:1046B000F3E0B150E040F040E1F700C00000802F8F
:1046C0000E94FD1868CF812F86958695837061F0D2
:1046D000813009F060CFC8019370D11002C090E022
:1046E00080E00E94770B57CFC8019370D11002C0B1
:1046F00090E080E00E94610B4ECF802FDD2029F0FA
:104700000E947C0D0E94411846CF0E94E40DFACF12
:10471000812F837009F07AC0D1103DCF202F2295D0
:1047200026952770220F220F402F4F7050E070E027
:1047300060E0022E04C0440F551F661F771F0A94C5
:10474000D2F780E090E0DC0104FF0FC08FE090E042
:10475000A0E0B0E004C0880F991FAA1FBB1F2A95D4
:10476000D2F780959095A095B095E12FE695E695C6
:10477000E370E23059F1E33009F441C000918D0655
:1047800010918E0620918F0630919006E13099F0BD
:10479000842B952BA62BB72BAC01BD0140235123B5
:1047A0006223732349875A876B877C87CB01BA01C1
:1047B0000E940A1EF0CE042B152B262B372BB90195
:1047C000A801482B592B6A2B7B2BECCF842B952BE4
:1047D000A62BB72B40918D0650918E0660918F06C7
:1047E000709190068C019D010427152726273727F5
:1047F00009871A872B873C87C901B801D9CF8A015D
:104800009B01082B192B2A2B3B2BF2CFDD2009F41F
:104810004CC010FFC0CE202F229526952770220F66
:10482000220F402F4F7050E070E060E0022E04C075
:10483000440F551F661F771F0A94D2F780E090E05F
:10484000DC0104FF0FC08FE090E0A0E0B0E004C006
:10485000880F991FAA1FBB1F2A95D2F780959095A4
:10486000A095B095E12FE695E695E370E23059F119
:10487000E330E1F1009191061091920620919306A8
:1048800030919406E130A1F0842B952BA62BB72B09
:10489000AC01BD01402351236223732349875A870A
:1048A0006B877C87CB01BA012DC011FF74CEB3CFCB
:1048B000042B152B262B372BB901A801482B592B7C
:1048C0006A2B7B2BEBCF842B952BA62BB72B409100
:1048D00091065091920660919306709194068C0116
:1048E0009D01042715272627372706C08A019B012B
:1048F000082B192B2A2B3B2B09871A872B873C87E0
:10490000C901B8010E94141E46CE1F70DD2029F097
:10491000812F0E942E1E802F9FCE802F0E94000D7F
:10492000812F0E945F1E37CE023FD9F160F4003F15
:10493000F1F0013F79F1DD2009F458C0C1100ECE2D
:10494000812F8F712BC0033F89F1043FA1F7DD2038
:1049500009F441C01F71812F0E942E1E58E0159F3F
:10496000C0011124836080939506812F17C025E034
:10497000D11024E02C1508F40ECE1F7181E090E0D8
:10498000A0E0B0E004C0880F991FAA1FBB1F1A95B2
:10499000D2F79DCF812F8F71DD2019F20E942E1E3C
:1049A000FACD812F8F71DD20C9F3BBCF60E070E0BD
:1049B000CB01DD2009F4A6CF1F7181E090E0A0E0DB
:1049C000B0E0AC01BD0104C0440F551F661F771F46
:1049D0001A95D2F763CF81E00E94941E61E06C15B6
:1049E00008F0D9CD82E00E94941ED5CDCC2059F09C
:1049F000093309F064CE7FEF87EE93E07150804079
:104A00009040E1F75ACE812F8F718BCF61E0C701C3
:104A10000E942F0C8C01D70112968C91882309F4E7
:104A200053CA80918706882309F438CA8091850685
:104A3000909186060E942B0D8C32914008F044CA5A
:104A4000C80190568115E0E29E0720F0905E811526
:104A5000904108F4112780918406853008F01BCA24
:104A6000E82FF0E0EE0FFF1FE658F94F11830083A7
:104A70008F5F8093840680919506877009F4F6C94C
:104A8000D70112968C91882309F4F0C982E02C9604
:104A90000FB6F894DEBF0FBECDBFDF91CF911F914F
:104AA0000F91FF90EF90DF90CF90BF90AF909F90CD
:104AB0008F907F906F900C94941E0115BCE51B079E
:104AC00009F0E3CC0E94471B5FEF64E37CE05150A8
:104AD00060407040E1F700C0000081E08093E0009A
:104AE00080E28093D8001092C9008FE19EE4019784
:104AF000F1F700C0000087E090EBDC018093B20783
:104B00009093B307A093B407B093B50788E19CE0F6
:104B10000FB6F894A895809360000FBE9093600044
:104B2000FFCF0631FCE51F0709F422CC80918A06ED
:104B30008272F801E45CFC45E431F10508F0A9CC8F
:104B4000E25AF94C0C94F1311F93CF93DF9380918B
:104B5000CD06807FA9F48091CA06882389F08091D0
:104B60009706C09196067091C8066091C906A091FB
:104B7000CB06B091CC06D62FD72316E0C81304C0BD
:104B8000DF91CF911F91089590E0109711F0DF3FD2
:104B900019F401968770F2CF189F9001199F300D7C
:104BA0001124F901E856F94F41816413F2CF408195
:104BB0004713EFCF42814111ECCF438154814A1B0F
:104BC0005B0B483C510528F78091CD068F708061C2
:104BD0008093CD06F901E356F94F80818F70806193
:104BE000808388EC96E00E94101FDF91CF911F9187
:104BF0000C948D0BAF92BF92CF92DF92EF92FF9207
:104C00000F931F93CF93DF93CDB7DEB72B970FB6DC
:104C1000F894DEBF0FBECDBF8C0185E0F801DE0148
:104C2000179601900D928A95E1F7F80180819181A4
:104C3000E28028ECA22E26E0B22E6091CB06709185
:104C4000CC066115710549F03091C8064091C9063E
:104C5000232F24232F3F09F026C1EE2009F433C16E
:104C60008F8398878F8198850E94700CF82E8823F7
:104C700009F429C186E0F801A8ECB6E001900D9294
:104C80008A95E1F78091C8069091C9060E94640C4C
:104C90000E94A4251DC02091CD06522F507F683C54
:104CA000710508F0A5C05111C3C0FE2C491322C0E4
:104CB000381320C0E1101EC02F7020612093CD0654
:104CC00088EC96E00E94101F8091CD06F801858344
:104CD0008F2D2B960FB6F894DEBF0FBECDBFDF91A0
:104CE000CF911F910F91FF90EF90DF90CF90BF90E9
:104CF000AF900895CD2829F0282F29232F3F09F0C0
:104D000094C020E0F22FF170DF2EE09197064091E1
:104D1000960656E020FD1CC0EE20D1F28091CD0613
:104D200081608093CD06F12CD3CF2E2F30E05E9F93
:104D3000F0011124E856F94F6181691306C06081C2
:104D4000681303C062816E11E7CFF9013196E770F5
:104D5000E413EBCF8F8398878F8198850E94640C32
:104D6000292F22952F70903260F0225F2F70223011
:104D700078F49F7051F0F8019581907F31F4D12C37
:104D80000AC09F7011F08823D1F3805E8830B8F399
:104D9000C8010E94101FFD2C9BCF8F8398878F81A5
:104DA00098850E94700C882309F48DC0EE2009F4C8
:104DB0008AC08091CD06803270F02091C806309173
:104DC000C9063A8329831B82DD82CC828E83CE0181
:104DD00001960E94101F86E0F801A8ECB6E0019051
:104DE0000D928A95E1F70E94A425FF24F39470CFD9
:104DF000511132C088EC96E00E94101F86E0F50148
:104E000011928A95E9F78FCF8F8398878F81988544
:104E10000E94700C8111DFCF8091CD06816080935C
:104E2000CD06C8010E94101F53CF21E02E256ACF66
:104E30004913B3CF3813B1CFE110AFCFF8012583B9
:104E4000C8010E94101F86E0F801A8ECB6E00190AE
:104E50000D928A95E1F73CCF49139FCF38139DCF30
:104E6000E1109BCFF8012583C8010E94101F86E046
:104E7000F50111928A95E9F72BCF4913C5CF381365
:104E8000C3CF8091CD0680FDDECF982F907FD9F2E1
:104E9000F8018583903FA1F2982F907F905F8F70EB
:104EA000892B8583CDCFC380D480F090CA06F601CC
:104EB000E61BF70BBF01F110EECE683C7105B8F6AA
:104EC000FE2CE110DACFC8010E94101F8ECF1F9375
:104ED000CF93DF93CDB7DEB767970FB6F894DEBFF9
:104EE0000FBECDBF4B8B5C8B6D8B7E8B8F8B1A8AED
:104EF00085E0FE017396DE011D9601900D928A9564
:104F0000E1F786E0FE013D96DE01179601900D92D5
:104F10008A95E1F7CE0107960E94FA25882389F049
:104F200016E08091970690919606891349C067967E
:104F30000FB6F894DEBF0FBECDBFDF91CF911F91AA
:104F4000089586E0FE013796DE01119601900D92DC
:104F50008A95E1F78A859B85892B11F388859F8146
:104F600089238F3FE9F22091960630E0C90101962E
:104F700087709927409197064817190671F40E9487
:104F8000471B109296061092970686E0E8ECF6E032
:104F9000DF011D928A95E9F7C3CF96E0929FD00179
:104FA000939FB00D1124A856B94FFE013196019080
:104FB0000D929A95E1F7809396060E948D0BB0CFE3
:104FC000819FC00111248856994F0E94FA25882399
:104FD00009F4ADCF8091970690E0019687709927EC
:104FE000809397069ECF78941F921FB61F9211242C
:104FF0008F939F93AF93BF93809143069091440604
:10500000A0914506B09146060196A11DB11D809361
:10501000430690934406A0934506B0934606BF917D
:10502000AF919F918F911F901FBE1F901895CDB784
:10503000DEB72F970FB6F894DEBF0FBECDBF84B793
:10504000877F84BF0FB6F894A8958091600088612F
:1050500080936000109260000FBE80E890E00FB671
:10506000F89480936100909361000FBE85B78068CB
:1050700085BF85B7806885BF0E94140F0E948D0F81
:105080008091E20084608093E200789480913506FC
:105090008823A1F01091E9001F709091EC00892FF6
:1050A000817090FD80E8182B1092E9008091E80053
:1050B00083FD0E94521B1F701093E90082E084BDA3
:1050C00093E095BD9AEF97BD80936E000E94EE0F1E
:1050D0008093140180911401882309F434C2109242
:1050E0002A018AE080932B010E94EE0F882331F081
:1050F00062E070E084E091E00E944E308091140103
:105100008091140194E0811190E09093A40784E0D1
:10511000891B80939B0784E30E947C0A86EC0E9493
:105120007C0A87E90E947C0A84E90E947C0A05E8DF
:1051300011E09DE8E92E91E0F92ED8018D918D01C5
:105140000E947C0AE016F106C1F788E0E5EAF7E084
:10515000DF01282F1D922A95E9F7ECE9F7E0DF013E
:105160001D928A95E9F790E080E00E948D358C3E93
:105170009E4F11F00E94E4150E94EE0F811106C0AF
:1051800062E070E084E091E00E94573082E080931A
:10519000200680E88093DD010E94F82E6DE070E02B
:1051A00085E497E00E945C16892B09F03FC080914E
:1051B000200663E070E081FDCAC182E497E00E94AE
:1051C0005C16892B99F56DE070E082E397E00E9410
:1051D0005C16892B59F50E940B0DDC01CB01805A1E
:1051E0009541AF4FBF4F8093240690932506A0931F
:1051F0002606B0932706E0E2F2E080E094E0DF01CB
:105200009C011D9221503040E1F7F093DF01E093C3
:10521000DE018FEF9FEF909323068093220681E0BB
:1052200080932906809328061092210690E080E062
:105230000E948D358C3E9E4F11F00E94E41582E055
:1052400090E00E947F3580932B060E944E1690932B
:10525000AE078093AD0783E090E00E947F35282F52
:1052600030E050E040E02C873D874E875F87CA01E1
:10527000B9010E940A1E8091D90181113BC090E0C2
:1052800080E00E948D358C3E9E4F21F00E94E415F7
:105290000E94CB1388E090E00E94873560938807D6
:1052A0007093890780938A0790938B078091810779
:1052B0008360809381076E7F71F40E94CB1388E036
:1052C00090E00E94873560938807709389078093E8
:1052D0008A0790938B070E94320B0E94480B8091A3
:1052E000880780FF04C060E086950E94C61781E0B1
:1052F0008093D9018CE191E09093D3068093D206FC
:10530000AE014F5F5F4F2A0122242394312C8091FC
:105310003506853009F41EC10E94BB19882E0E94F3
:10532000EE0F882309F45AC1ACE9B7E0ECE2F6E0ED
:1053300010E000E0302F8D919191981709F448C149
:10534000292F282790E0FF24F3944F2D422309F4BE
:105350003AC199833A838F2191E009F490E09B83CD
:105360000E949F178160782F9D838C8349815A8189
:105370006B818D810E946727F801E45DF94F808180
:10538000F826F08280918007882309F468C0809114
:105390007F07E0918807E695E81BE0938407823059
:1053A00009F02DC1F0E0ED59F84FE491CE2ED12C4B
:1053B00009E810E180918507882389F0109285071C
:1053C0000E949F17960120953095280F391F309322
:1053D0008307209382071092870710928607809197
:1053E0008207909183070E942B0D8C159D05B8F1C3
:1053F0008091DC018823B1F01092DC018091DA0108
:105400009091DB010E942B0D8033954758F00E944C
:105410009F179093DB018093DA0180918107886068
:1054200080938107E0908607F0908707E0918207DC
:10543000F0918307CE0EDF1ED0928307C0928207C1
:1054400082E897E0F8010995809186079091870797
:10545000892B29F4EF2819F081E08093DC018091F9
:105460002906882309F4E9C120E232E03093DF0104
:105470002093DE010E94EE0F882309F4BCC287E668
:1054800097E00E946A1789E098E00E946A1781E01D
:1054900098E00E946A17409191065091920660919F
:1054A000930670919406CB01AA27BB270097A1050C
:1054B000B10509F403C1AC01BD0180E1052F162F30
:1054C000272F3327011511052105310519F0885FB4
:1054D000B901A8018A019B01E4E03695279517954B
:1054E0000795EA95D1F7011511052105310519F048
:1054F0008C5FB901A8018A019B0192E0369527953E
:10550000179507959A95D1F70115110521053105D4
:1055100019F08E5FB901A801769567955795479563
:10552000452B462B472B09F08F5F823009F460C270
:1055300008F0C6C0882309F4C9C0813009F455C2F7
:1055400087ED97E0C5C08AE080932A01CBCD8FE339
:1055500097E035CE80913506843021F110924706D0
:1055600088E190E020E40FB6F894A895809360005D
:105570000FBE2093600083B7817F846083BF83B7B1
:10558000816083BF7894889583B78E7F83BF0FB681
:10559000F894A895809160008861809360001092D3
:1055A00060000FBE80913406882309F4B0CE0E94BB
:1055B000BB19ECE9F7E081918111DCC257E0E43AD4
:1055C000F507C9F7A4CE9F5FFF0C983009F0BDCE58
:1055D0000F5F1F4F0830110509F0ACCE8FEF8F839E
:1055E000888719860E949F178160782F9B878A87FA
:1055F0004F81588569858B850E946727C3CE863089
:1056000049F4F0E0E05AF84FE491CE2ED12C0DE9A8
:1056100010E1D0CE893051F4E695F0E0E35AF84F2E
:10562000E491CE2ED12C0DEE10E1C4CE8F3051F48A
:10563000E695F0E0E65AF84FE491CE2ED12C0AE23E
:1056400011E1B8CE853149F4F0E0E95AF84FE49120
:10565000CE2ED12C0FEB11E1ADCE08E2C02ED12C15
:1056600008E412E1883109F4A5CE833239F4E5E586
:10567000F7E0C590D4900DEA10E19CCE14EFC12E56
:10568000DD24D39400EF12E1843209F493CEB0ED1F
:10569000CB2EB7E0DB2E0FE41BE0853209F08ACE7B
:1056A0008E2F63E00E94AF31E92FF0E0EE5AF84F01
:1056B000E491CE2ED12C07E215E17CCE80E0FECE27
:1056C000833009F03DCF82EE97E002C088EF97E08B
:1056D0000E946A170E94550B182F47EC57E0CA0129
:1056E00010FF03C0AFECB7E0CD010E946A17E7EBF3
:1056F000F7E0CF0111FF03C02FEB37E0C9010E9493
:105700006A1747EA57E0CA0112FF03C0AFEAB7E0E1
:10571000CD010E946A1780912906882309F45EC092
:1057200020912206309123062115310509F456C037
:1057300080912106811152C0082F10E07101082EBE
:1057400002C0EE0CFF1C0A94E2F7A9014E215F2172
:10575000452B09F48DC19091200690FD8BC1829557
:10576000880F880F807480931701980136952795CC
:1057700020931A01815C8093180110921B0124E68A
:1057800030E047E050E065E171E088E70E94892F52
:10579000892B21F5A80126E0440F551F2A95E1F732
:1057A0008091200680FD74C1405E5D4F04E610E0EC
:1057B00020E430E060E488E70E94B62F892B71F482
:1057C0000E948B16E094F09480912206909123061B
:1057D000E822F922F0922306E09222068091280620
:1057E000882359F10E940B0D6C877D878E879F87D8
:1057F0008091240690912506A0912606B091270657
:105800002C853D854E855F85281B390B4A0B5B0B2C
:10581000DA01C9018F3F9F4FAF4FBF4770F48091AE
:105820002906882351F062E070E08FE19CE00E943D
:105830005C16892B11F41092280681100E948B1699
:1058400086E0E4E7F6E0D20101900D928A95E1F757
:10585000F0907606E0907706109178060091790630
:1058600010927606109277061092780610927906BA
:105870008F2D8E29D42CC52C09F448C08091410667
:10588000909142060E942B0D9C0180917306882303
:1058900009F48BC123333105C8F18F3F19F08F5FB5
:1058A00080937306FF2059F00E943A0D9FEF1F145A
:1058B0000CF491E0899F802D112480937606EE20D0
:1058C00059F00E943A0D9FEF1E140CF491E0899F4D
:1058D000802D112480937706309176063323B1F022
:1058E00020917706222391F045EB3403C001112467
:1058F000992309F42FC19093760655EB2503900167
:105900001124332309F42AC130937706812F802B89
:1059100009F448C080913F06909140060E942B0DEB
:105920009C0180917206882309F43AC1253631051D
:10593000C8F18F3F19F08F5F80937206112359F0E1
:105940000E945A0D9FEF11160CF491E0899F802D53
:10595000112480937806002359F00E945A0D9FEF7E
:1059600010160CF491E0899F802D11248093790604
:10597000309178063323B1F020917906222391F0FB
:1059800045EB3403C0011124992309F4EBC0909333
:10599000780655EB250390011124332309F4E6C062
:1059A000309379068091760690917706892B9091B5
:1059B0007806892B90917906892B11F00E94411865
:1059C00086E0ED2DFC2DA4E7B6E001900D928A95BE
:1059D000E1F70E94550B90912A06891709F497CC9C
:1059E0000E94550B80932A0692CC81EF97E070CEEF
:1059F0008AEE97E06DCE2091DE013091DF01C90182
:105A00008052924020523E4F21303440A0F020E09E
:105A100034E0281B390B4091220650912306EFE118
:105A2000F8E0280F391F8217930740F050932306A0
:105A30004093220670CE20E034E0EDCF6491DC018B
:105A4000A05EBD4F7C91671781F06C93BC01A6E00E
:105A500076956795AA95E1F7D10102C0AA0FBB1F01
:105A60006A95E2F7BD014A2B572B01963196DBCFA1
:105A70008F5F62CE880F880F880F80931701109276
:105A80001A01895F8093180187E080931B0177CE0C
:105A900080E4E0EEF1E011928A95E9F72AE431E042
:105AA0003D872C8792E4C92E91E0D92EAC85BD8527
:105AB0009D91BD87AC87F60181916F018A01080F26
:105AC000111D005E1D4FE92FF0E0E052FE4F30E067
:105AD00020E087E0682E621A922C022E01C0990CF9
